{
  "_format": "hh-sol-artifact-1",
  "contractName": "Pizza",
  "sourceName": "contracts/Pizza.sol",
  "abi": [
    {
      "inputs": [
        {
          "internalType": "uint256",
          "name": "_pizzaSize",
          "type": "uint256"
        }
      ],
      "stateMutability": "nonpayable",
      "type": "constructor"
    },
    {
      "inputs": [],
      "name": "PIZZA_SIZE",
      "outputs": [
        {
          "internalType": "uint256",
          "name": "",
          "type": "uint256"
        }
      ],
      "stateMutability": "view",
      "type": "function"
    },
    {
      "inputs": [],
      "name": "bakeNewPizza",
      "outputs": [],
      "stateMutability": "nonpayable",
      "type": "function"
    },
    {
      "inputs": [],
      "name": "eatSlice",
      "outputs": [],
      "stateMutability": "nonpayable",
      "type": "function"
    },
    {
      "inputs": [],
      "name": "slices",
      "outputs": [
        {
          "internalType": "uint256",
          "name": "",
          "type": "uint256"
        }
      ],
      "stateMutability": "view",
      "type": "function"
    }
  ],
  "bytecode": "0x608060405234801561001057600080fd5b5060405161046438038061046483398181016040528101906100329190610083565b80600081905550600054600181905550506100b0565b600080fd5b6000819050919050565b6100608161004d565b811461006b57600080fd5b50565b60008151905061007d81610057565b92915050565b60006020828403121561009957610098610048565b5b60006100a78482850161006e565b91505092915050565b6103a5806100bf6000396000f3fe608060405234801561001057600080fd5b506004361061004c5760003560e01c806308329585146100515780635e723cff1461005b578063a63b6cde14610065578063f5aae2fd14610083575b600080fd5b6100596100a1565b005b610063610101565b005b61006d610163565b60405161007a9190610188565b60405180910390f35b61008b610169565b6040516100989190610188565b60405180910390f35b6000600154116100e6576040517f08c379a00000000000000000000000000000000000000000000000000000000081526004016100dd90610226565b60405180910390fd5b60018060008282546100f89190610275565b92505081905550565b600060015414610146576040517f08c379a000000000000000000000000000000000000000000000000000000000815260040161013d9061031b565b60405180910390fd5b6000546001600082825461015a919061033b565b92505081905550565b60015481565b60005481565b6000819050919050565b6101828161016f565b82525050565b600060208201905061019d6000830184610179565b92915050565b600082825260208201905092915050565b7f4e656e68756d6120466174696120646973706f6e6976656c2e2056616d6f732060008201527f66617a6572206f757472612050697a7a612e0000000000000000000000000000602082015250565b60006102106032836101a3565b915061021b826101b4565b604082019050919050565b6000602082019050818103600083015261023f81610203565b9050919050565b7f4e487b7100000000000000000000000000000000000000000000000000000000600052601160045260246000fd5b60006102808261016f565b915061028b8361016f565b92508282039050818111156102a3576102a2610246565b5b92915050565b7f412050697a7a6120616e746572696f722061696e6461206e616f20616361626f60008201527f7521000000000000000000000000000000000000000000000000000000000000602082015250565b60006103056022836101a3565b9150610310826102a9565b604082019050919050565b60006020820190508181036000830152610334816102f8565b9050919050565b60006103468261016f565b91506103518361016f565b925082820190508082111561036957610368610246565b5b9291505056fea2646970667358221220de057303b49086d58e4675d06b90caaeed432ef8fcccfa7f840250a211e0032c64736f6c63430008180033",
  "linkReferences": {},
  "deployedLinkReferences": {}
}